:0E020E0048656C6C6F20576F726C64210A009B
:1001CC007F807E251201667BFF7A02790E12019ADE
:1001DC007BFF7A02790E12019A7BFF7A02790E125A
:0D01EC00019A7BFF7A02790E12019A80FEC3
:10016600E4FCFD7BE07A2EF9F8120030A804A9051C
:10017600AA06AB077F007E707D997C141200BBC374
:10018600E49FFF7598504389208F8D8F8DD299C239
:03019600ACD28E5A
:010199002243
:0D021C003099FDC299BF0A027F0D8F992213
:06019A008B088A09890AA6
:1001A0001201F98F0BE4FDFCC3ED950B7480F86C24
:1001B000985018AB08AA09A90A8D828C83120003F3
:0B01C000FF12021C0DBD00010C80DDD1
:0101CB002211
:03000000020229D0
:0C022900787FE4F6D8FD75810B0201CC53
:10000300BB010CE58229F582E5833AF583E02250B2
:1000130006E92582F8E622BBFE06E92582F8E222FC
:0D002300E58229F582E5833AF583E4932216
:10003000E88FF0A4CC8BF0A42CFCE98EF0A42CFC6F
:100040008AF0EDA42CFCEA8EF0A4CDA8F08BF0A4ED
:100050002DCC3825F0FDE98FF0A42CCD35F0FCEB4C
:100060008EF0A4FEA9F0EB8FF0A4CFC5F02ECD3911
:0F007000FEE43CFCEAA42DCE35F0FDE43CFC227E
:10007F0075F008758200EF2FFFEE33FECD33CDCC38
:10008F0033CCC58233C5829BED9AEC99E5829840BB
:10009F000CF582EE9BFEED9AFDEC99FC0FD5F0D698
:1000AF00E4CEFBE4CDFAE4CCF9A88222B800C1B9C2
:1000BF000059BA002DEC8BF084CFCECDFCE5F0CB00
:1000CF00F97818EF2FFFEE33FEED33FDEC33FCEB39
:1000DF0033FB10D703994004EB99FB0FD8E5E4F9F4
:1000EF00FA227818EF2FFFEE33FEED33FDEC33FCE1
:1000FF00C933C910D7059BE99A4007EC9BFCE99AD5
:10010F00F90FD8E0E4C9FAE4CCFB2275F010EF2F19
:10011F00FFEE33FEED33FDCC33CCC833C810D70719
:10012F009BEC9AE899400AED9BFDEC9AFCE899F854
:0E013F000FD5F0DAE4CDFBE4CCFAE4C8F922E7
:1001F900E4FFFE12014D600C0FEF70010E09E9706A
:05020900F20A80EF2263
:10014D00BB010689828A83E0225002E722BBFE02B0
:09015D00E32289828A83E49322E3
:00000001FF
