:0F0075001200907FE87E0312000312009480F4C3
:100003005389F0438901C2A9E4FDFCC3ED9FEC9E33
:100013005016758CFC758A18C28DD28C308DFDC23A
:080023008C0DBD00010C80E30F
:01002B0022B2
:10002C0053890F438910C2ABE4FDFCC3ED9FEC9EDA
:10003C005016758DFC758B18C28FD28E308FFDC209
:08004C008E0DBD00010C80E3E4
:010054002289
:10005500E4FDFCC3ED9FEC9E5015E4FBFA0BBB00E1
:0F006500010AEB647B4A70F50DBD00010C80E4CD
:010074002269
:040090004396A322CE
:04009400439602226B
:0300000002008477
:0C008400787FE4F6D8FD75810702007556
:00000001FF
