:1001DF001202EC1203697BFF7A03793175270375DD
:1001EF0028E8D202E4FDFC1201177BFF7A007903A5
:1001FF0075274E752820C2027D017C00120117124F
:07020F00037D12018480FB56
:1002EC00E4F522AF221202160522E522C394024045
:1002FC00F2E4F5C875CDFC75CBFC75CC6775CA6797
:04030C00D2ADD2CAD2
:0103100022CA
:03037D00D2AF22DA
:040379004387012293
:10018400E4F522E52275F009A42410F8E66040E5C0
:100194002275F009A4240FF8E6D394004031E52237
:1001A40075F009A42408F808E6FA08E6F9120373BE
:1001B400E52275F009A4240FF816E52275F009A4C8
:1001C400240DF8E6FE08E64E7005AF22120216056D
:0B01D40022E522C3940240AB02037935
:060117008B228A238924DB
:10011D00E4FFEF75F009A42408F808E6FA08E64AAA
:10012D006009EFC3940250030F80E7EF640260464D
:10013D00AA23A924EF75F009A42408F8A62208A67D
:10014D000208A601EF75F009A4240BF8A60408A671
:10015D0005EF75F009A4240DF8A62708A628EF755C
:10016D00F009A4240FF8E4F6A20233FEEF75F009AE
:06017D00A42410F8A60600
:010183002259
:10021600EF75F009A42408F8760008760008760041
:10022600EF75F009A4240BF8E4F608F6EF75F0096B
:10023600A4240DF8E4F608F6EF75F009A4240FF8E7
:03024600E4F622B9
:03002B0002002EA2
:10002E00C0E0C0F0C083C082C0D075D000C000C098
:0D003E0001C002C003C004C005C006C00719
:10004B00C2CF752100E52175F009A42408F808E654
:10005B00FA08E6AE024E70030200F0E52175F009D6
:10006B00A4240BF8E6FE08E64E706AE52175F0094C
:10007B00A42410F8E6600CE52175F009A4240FF810
:10008B00068031E52175F009A42408F808E6FA0882
:10009B00E6F9120373E52175F009A4240FF816E5B0
:1000AB002175F009A4240DF8E6FE08E64E7005AFA5
:1000BB0021120216E52175F009A4240DF8E6FE08BD
:1000CB00E6FF4E6020E52175F009A4240BF8A60687
:1000DB0008A6078010E52175F009A4240BF808E6A3
:1000EB0016187001160521E521C394025003020076
:0100FB0050B4
:1000FC00D007D006D005D004D003D002D001D00058
:0B010C00D0D0D082D083D0F0D0E03201
:0A036900D201C200E4F51AF51B22D0
:10034D00300105C201C29722200104D201D29722A9
:1002C600051BE51B7002051AC39414E51A94004039
:1002D60014E4F51AF51B300105C201C2972220016C
:0602E60004D201D29722B0
:10033100200018D200300108C201C290C297800982
:0C034100200106D201D290D297C2002207
:10000300200024D200E4F5227590F07FF47E0112E3
:10001300027475900F7FF47E011202740522E522AB
:07002300C3940540E3C20095
:01002A0022B3
:100274005389F0438901C2A9E4FDFCC3ED9FEC9EC0
:100284005016758CFC758A67C28DD28C308DFDC278
:080294008C0DBD00010C80E39C
:01029C00223F
:10029D0053890F438910C2ABE4FDFCC3ED9FEC9E67
:1002AD005016758DFC758B67C28FD28E308FFDC247
:0802BD008E0DBD00010C80E371
:0102C5002216
:10024900E4F5C8C2ADFDFCC3ED9FEC9E501C75CD15
:10025900FC75CBFC75CC6775CA67C2CFD2CA30CFE3
:0A026900FDC2CA0DBD00010C80DDCE
:010273002268
:10031100E4FDFCC3ED9FEC9E5015E4FBFA0BBB0022
:0F032100010AEB647B4A70F50DBD00010C80E40E
:0103300022AA
:0300000002035D9B
:0C035D00787FE4F6D8FD7581280201DFEE
:060373008A838982E47315
:00000001FF
