:100193001200031201D57BFF7A0179B3751503753C
:1001A30016E8E4FDFC1200B212002812011180FBD4
:10000300E4F510AF101201600510E510C394014030
:10001300F2E4F5C875CDF875CBF875CCCD75CACDBE
:04002300D2ADD2CABE
:0100270022B6
:03002800D2AF2232
:0401DA004387012234
:10011100E4F510E51075F008A4240FF8E6D3940077
:100121004031E51075F008A42408F808E6FA08E65D
:10013100F91201CFE51075F008A4240FF816E510A7
:1001410075F008A4240DF8E6FE08E64E7005AF1020
:0F0151001201600510E510C3940140B70201DAF6
:0600B2008B108A11891277
:1000B800E4FFEF75F008A42408F808E6FA08E64A11
:1000C8006009EFC3940150030F80E7EF64016038C3
:1000D800AA11A912EF75F008A42408F8A61008A61A
:1000E8000208A601EF75F008A4240BF8A60408A6D8
:1000F80005EF75F008A4240DF8A61508A616EF75E7
:08010800F008A4240FF8E4F64E
:0101100022CC
:10016000EF75F008A42408F87600087600087600F9
:10017000EF75F008A4240BF8E4F608F6EF75F00824
:10018000A4240DF8E4F608F6EF75F008A4240FF89F
:03019000E4F62270
:03002B0002002EA2
:10002E00C0E0C0F0C0D075D000C000C002C004C097
:03003E0005C007F3
:10004100C2CFE4FFEF75F008A42408F808E6FA0827
:10005100E6AC024C6046EF75F008A4240BF8E6FC10
:1000610008E64C7028EF75F008A4240FF806EF7528
:10007100F008A4240DF8E6FC08E6FD4C601EEF75BF
:10008100F008A4240BF8A60408A605800FEF75F06C
:1000910008A4240BF808E616187001160FBF01A476
:1000A100D007D005D004D002D000D0D0D0F0D0E01D
:0100B100321C
:0501D500D200D29722C8
:1001B300300005C200C29722200004D200D2972249
:030000000201C337
:0C01C300787FE4F6D8FD758120020193DE
:0601CF008A838982E473BB
:00000001FF
