:1001DF0012029B12031E7BFF7A0279E075270375CB
:1001EF0028E8D202E4FDFC1201177BFF7A007903A5
:1001FF0075274E752820C2027D017C00120117124F
:07020F00032712018480FBAC
:05031E00D201C2002223
:1002FC00300105C201C29722200104D201D29722FB
:1002E000200018D200300108C201C290C2978009D4
:0C02F000200106D201D290D297C2002259
:10000300200024D200E4F5227590F07FF47E0112E3
:10001300024975900F7FF47E011202490522E52201
:07002300C3940540E3C20095
:01002A0022B3
:10029B00E4F522AF221202160522E522C394024096
:1002AB00F2E4F5C875CDFC75CBFC75CC6775CA67E8
:0402BB00D2ADD2CA24
:0102BF00221C
:03032700D2AF2230
:0403230043870122E9
:10018400E4F522E52275F009A42410F8E66040E5C0
:100194002275F009A4240FF8E6D394004031E52237
:1001A40075F009A42408F808E6FA08E6F912031819
:1001B400E52275F009A4240FF816E52275F009A4C8
:1001C400240DF8E6FE08E64E7005AF22120216056D
:0B01D40022E522C3940240AB0203238B
:060117008B228A238924DB
:10011D00E4FFEF75F009A42408F808E6FA08E64AAA
:10012D006009EFC3940250030F80E7EF640260464D
:10013D00AA23A924EF75F009A42408F8A62208A67D
:10014D000208A601EF75F009A4240BF8A60408A671
:10015D0005EF75F009A4240DF8A62708A628EF755C
:10016D00F009A4240FF8E4F6A20233FEEF75F009AE
:06017D00A42410F8A60600
:010183002259
:10021600EF75F009A42408F8760008760008760041
:10022600EF75F009A4240BF8E4F608F6EF75F0096B
:10023600A4240DF8E4F608F6EF75F009A4240FF8E7
:03024600E4F622B9
:03002B0002002EA2
:10002E00C0E0C0F0C083C082C0D075D000C000C098
:0D003E0001C002C003C004C005C006C00719
:10004B00C2CF752100E52175F009A42408F808E654
:10005B00FA08E6AE024E70030200F0E52175F009D6
:10006B00A4240BF8E6FE08E64E706AE52175F0094C
:10007B00A42410F8E6600CE52175F009A4240FF810
:10008B00068031E52175F009A42408F808E6FA0882
:10009B00E6F9120318E52175F009A4240FF816E50B
:1000AB002175F009A4240DF8E6FE08E64E7005AFA5
:1000BB0021120216E52175F009A4240DF8E6FE08BD
:1000CB00E6FF4E6020E52175F009A4240BF8A60687
:1000DB0008A6078010E52175F009A4240BF808E6A3
:1000EB0016187001160521E521C394025003020076
:0100FB0050B4
:1000FC00D007D006D005D004D003D002D001D00058
:0B010C00D0D0D082D083D0F0D0E03201
:100249005389F0438901C2A9E4FDFCC3ED9FEC9EEB
:100259005016758CFC758A67C28DD28C308DFDC2A3
:080269008C0DBD00010C80E3C7
:01027100226A
:1002720053890F438910C2ABE4FDFCC3ED9FEC9E92
:100282005016758DFC758B67C28FD28E308FFDC272
:080292008E0DBD00010C80E39C
:01029A002241
:1002C000E4FDFCC3ED9FEC9E5015E4FBFA0BBB0074
:0F02D000010AEB647B4A70F50DBD00010C80E460
:0102DF0022FC
:0300000002030CEC
:0C030C00787FE4F6D8FD7581280201DF3F
:060318008A838982E47370
:00000001FF
