:0B012F0012015012001E12000380FE9F
:0A015000D200D297E4F508F5092269
:1000E7000509E50970020508D394E8E508648094DA
:1000F700834014E4F508F509300005C200C29722D1
:08010700200004D200D297226F
:03000300D2AF2257
:0B013A00C28C758CFC758A18D28C22D8
:0B014500C28E758DFC758B18D28E22C7
:0C000E005389F043890112013AD2A92263
:0C001E0053890F438910120145D2AB2218
:10010F00E4F5C875CDFC75CBFC75CC1875CA18D243
:04011F00ADD2CA2271
:03000B0002002EC2
:10002E00C0E0C0F0C083C082C0D075D000C000C098
:10003E0001C002C003C004C005C006C00712013AC9
:10004E001200E7D007D006D005D004D003D002D0DE
:0E005E0001D000D0D0D082D083D0F0D0E032DC
:03001B0002006C74
:10006C00C0E0C0F0C083C082C0D075D000C000C05A
:10007C0001C002C003C004C005C006C00712014580
:10008C001200E7D007D006D005D004D003D002D0A0
:0E009C0001D000D0D0D082D083D0F0D0E0329E
:03002B000200AA26
:1000AA00C0E0C0F0C083C082C0D075D000C000C01C
:1000BA0001C002C003C004C005C006C007C2CF12F7
:1000CA0000E7D007D006D005D004D003D002D00173
:0D00DA00D000D0D0D082D083D0F0D0E03262
:03000000020123D7
:0C012300787FE4F6D8FD75812002012FE2
:00000001FF
