:0F0085001200A01200757FE87E0312005580F470
:100003005389F0438901C2A9E4FDFCC3ED9FEC9E33
:100013005016758CFC758A18C28DD28C308DFDC23A
:080023008C0DBD00010C80E30F
:01002B0022B2
:10002C0053890F438910C2ABE4FDFCC3ED9FEC9EDA
:10003C005016758DFC758B18C28FD28E308FFDC209
:08004C008E0DBD00010C80E3E4
:010054002289
:10005500E4FDFCC3ED9FEC9E5015E4FBFA0BBB00E1
:0F006500010AEB647B4A70F50DBD00010C80E4CD
:010074002269
:0500A000C200D297220E
:10007500200005D200C29722300004C200D2972288
:0300000002009467
:0C009400787FE4F6D8FD7581200200851D
:00000001FF
