:1002B2007F321201CC1202DE1202EC1202E880FB43
:1001CC00E4FCFDFEFB7AC079A8F812002EE47BE07B
:1001DC007A2EF9F812014BC3E49FFFE49EAD07FFA2
:1001EC00AE05E4F5C88FCD8FCB8ECC8ECAD2ADD2F6
:0101FC00CA38
:0101FD0022DF
:0302EC00D2AF226C
:0402E8004387012225
:03002B0002018F40
:10018F00C0E0C0F0C083C082C0D075D000C000C036
:10019F0001C002C003C004C005C006C007C2CF1211
:1001AF000250D007D006D005D004D003D002D00122
:0D01BF00D000D0D0D082D083D0F0D0E0327C
:0A02DE00D201C200E4F508F5092280
:1002C200300105C201C29722200104D201D2972235
:100250000509E50970020508C39414E508940040F7
:1002600014E4F508F509300105C201C29722200106
:0602700004D201D2972226
:10029600200018D200300108C201C290C29780091E
:0C02A600200106D201D290D297C20022A3
:10000300200024D200E4F50A7590F07FF47E0112FB
:1000130001FE75900F7FF47E011201FE050AE50AC9
:07002300C3940540E3C20095
:01002A0022B3
:1001FE005389F0438901C2A9E4FDFCC3ED9FEC9E37
:10020E005016758CFC758A67C28DD28C308DFDC2EE
:08021E008C0DBD00010C80E312
:0102260022B5
:1002270053890F438910C2ABE4FDFCC3ED9FEC9EDD
:100237005016758DFC758B67C28FD28E308FFDC2BD
:080247008E0DBD00010C80E3E7
:01024F00228C
:10027600E4FDFCC3ED9FEC9E5015E4FBFA0BBB00BE
:0F028600010AEB647B4A70F50DBD00010C80E4AA
:010295002246
:030000000202D227
:0C02D200787FE4F6D8FD7581200202B2AE
:10002E00E88FF0A4CC8BF0A42CFCE98EF0A42CFC71
:10003E008AF0EDA42CFCEA8EF0A4CDA8F08BF0A4EF
:10004E002DCC3825F0FDE98FF0A42CCD35F0FCEB4E
:10005E008EF0A4FEA9F0EB8FF0A4CFC5F02ECD3913
:0F006E00FEE43CFCEAA42DCE35F0FDE43CFC2280
:10014B00C2D5E830E70FB2D5E4C39BFBE49AFAE4DF
:10015B0099F9E498F8EC30E717B2D5120181120047
:10016B00B9E4C39BFBE49AFAE499F9E498F88003A9
:10017B001200B930D50DE4C39FFFE49EFEE49DFD54
:04018B00E49CFC22D2
:10007D0075F008758200EF2FFFEE33FECD33CDCC3A
:10008D0033CCC58233C5829BED9AEC99E5829840BD
:10009D000CF582EE9BFEED9AFDEC99FC0FD5F0D69A
:1000AD00E4CEFBE4CDFAE4CCF9A88222B800C1B9C4
:1000BD000059BA002DEC8BF084CFCECDFCE5F0CB02
:1000CD00F97818EF2FFFEE33FEED33FDEC33FCEB3B
:1000DD0033FB10D703994004EB99FB0FD8E5E4F9F6
:1000ED00FA227818EF2FFFEE33FEED33FDEC33FCE3
:1000FD00C933C910D7059BE99A4007EC9BFCE99AD7
:10010D00F90FD8E0E4C9FAE4CCFB2275F010EF2F1B
:10011D00FFEE33FEED33FDCC33CCC833C810D7071B
:10012D009BEC9AE899400AED9BFDEC9AFCE899F856
:0E013D000FD5F0DAE4CDFBE4CCFAE4C8F922E9
:00000001FF
