:1001DF0012000312028B7BFF7A0279597527037580
:1001EF0028E8C201E4FDFC1201177BFF7A0279694E
:1001FF00752727752810D2017D017C001201171277
:07020F00002812018480FBAE
:10000300E4F522AF221202160522E522C394024030
:10001300F2E4F5C875CDFC75CBFC75CC6775CA6782
:04002300D2ADD2CABE
:0100270022B6
:03002800D2AF2232
:04029000438701227D
:10018400E4F522E52275F009A42410F8E66040E5C0
:100194002275F009A4240FF8E6D394004031E52237
:1001A40075F009A42408F808E6FA08E6F9120285AD
:1001B400E52275F009A4240FF816E52275F009A4C8
:1001C400240DF8E6FE08E64E7005AF22120216056D
:0B01D40022E522C3940240AB0202901F
:060117008B228A238924DB
:10011D00E4FFEF75F009A42408F808E6FA08E64AAA
:10012D006009EFC3940250030F80E7EF640260464D
:10013D00AA23A924EF75F009A42408F8A62208A67D
:10014D000208A601EF75F009A4240BF8A60408A671
:10015D0005EF75F009A4240DF8A62708A628EF755C
:10016D00F009A4240FF8E4F6A20133FEEF75F009AF
:06017D00A42410F8A60600
:010183002259
:10021600EF75F009A42408F8760008760008760041
:10022600EF75F009A4240BF8E4F608F6EF75F0096B
:10023600A4240DF8E4F608F6EF75F009A4240FF8E7
:03024600E4F622B9
:03002B0002002EA2
:10002E00C0E0C0F0C083C082C0D075D000C000C098
:0D003E0001C002C003C004C005C006C00719
:10004B00C2CF752100E52175F009A42408F808E654
:10005B00FA08E6AE024E70030200F0E52175F009D6
:10006B00A4240BF8E6FE08E64E706AE52175F0094C
:10007B00A42410F8E6600CE52175F009A4240FF810
:10008B00068031E52175F009A42408F808E6FA0882
:10009B00E6F9120285E52175F009A4240FF816E59F
:1000AB002175F009A4240DF8E6FE08E64E7005AFA5
:1000BB0021120216E52175F009A4240DF8E6FE08BD
:1000CB00E6FF4E6020E52175F009A4240BF8A60687
:1000DB0008A6078010E52175F009A4240BF808E6A3
:1000EB0016187001160521E521C394025003020076
:0100FB0050B4
:1000FC00D007D006D005D004D003D002D001D00058
:0B010C00D0D0D082D083D0F0D0E03201
:05028B00D200D2972211
:10024900300005C200C29722200004D200D29722B2
:10025900300005C200C29722200004D200D29722A2
:10026900300005C200C29722200004D200D2972292
:0300000002027980
:0C027900787FE4F6D8FD7581280201DFD3
:060285008A838982E47304
:00000001FF
