:03000000020006F5
:03005F0002000399
:0300030002006296
:1000620090258012010C9004AB75F08012016C9007
:1000720004AB75F08012016C9004AB75F080120134
:0C0082006C9004AB75F08012016C80FEE5
:0E04AB0048656C6C6F20576F726C64210A00FC
:10008E00858208850815751600751700751800907D
:10009E00C00075F0A8E41203B3AC82AD83AEF0FFDE
:1000AE007515E075162EE4F517F5188C828D838E76
:1000BE00F0EF120421AC82AD83AEF0FFE4C39CFCE2
:1000CE00E49DFD74019EE49F8C098D0AAE0A8E0B91
:1000DE00AE09E50A7F008E0C8FC8850BCD850BCB44
:1000EE00850CCC850CCAD2ADD2CA22D2AF224387A0
:1000FE000122C0E0C2CFE590F4F590D0E0328582C7
:10010E000D85830E850D15850E1675170075180055
:10011E00902EE0E4F5F01203B385821585831685E3
:10012E00F017F51890700075F099741412034EAC18
:10013E0082E4FFC39CF50F74019FF5107598504330
:10014E008920850F8D850F8DD299C2ACD28E22AFAC
:10015E008210990280FBBF0A027F0D8F9922AD8219
:10016E00AE83AFF0C007C006C005120473AB82D0D9
:10017E0005D006D0078B117B007C00A9117A00C335
:10018E00EB99EC64808AF063F08095F05031EB2DA2
:10019E00F8EC3EF98F02888289838AF012048BF57F
:1001AE0082C007C006C005C004C00312015DD003A3
:1001BE00D004D005D006D0070BBB00BF0C80BC22EC
:1001CE008582158583165389F0438901C2A9E4F50A
:1001DE0017F518C3E5179515E5189516501C758C6F
:1001EE00FC758A67C28DD28C308DFDC28C74012550
:1001FE0017F517E43518F51880D9228582158583F1
:10020E001653890F438910C2ABE4F517F518C3E5F1
:10021E00179515E5189516501C758DFC758B67C2D4
:10022E008FD28E308FFDC28E74012517F517E435EF
:10023E0018F51880D92285821585831675C800C2D7
:10024E00ADE4F517F518C3E5179515E51895165095
:10025E002275CDFC75CBFC75CC6775CA67C2CFD243
:10026E00CA30CFFDC2CA74012517F517E43518F54B
:10027E001880D322858215858316E4F517F518C3E9
:10028E00E5179515E5189516502AE4F519F51AC3D4
:10029E00E519947BE51A9400500D74012519F51992
:1002AE00E4351AF51A80E874012517F517E43518A8
:1002BE00F51880CB22D200C201E4F512F5132210FC
:1002CE0000028003C29722200004D200D29722742B
:1002DE00012512F512E43513F513C3E5129414E556
:1002EE00139400500122E4F512F51310000280035E
:1002FE00C29722200004D200D2972230010122D2CE
:10030E00011000028006C290C2978009200006D21A
:10031E0000D290D297C2012230010122D20175146F
:10032E000074FB251440167590F09001F41201CE66
:10033E0075900F9001F41201CE051480E4C20122D3
:10034E00FB7A20E4FCFDFEFFE5822582F582E58343
:10035E0033F583E5F033F5F0EB33FB4017DAE98044
:10036E0042E5822582F582E58333F583E5F033F5A8
:10037E00F0EB33FBEC33FCED33FDEE33FEEF33FFEE
:10038E00EC9515ED9516EE9517EF95184013EC9527
:10039E0015FCED9516FDEE9517FEEF9518FF4382B1
:0503AE0001DABEEB22A4
:06003500E478FFF6D8FD9F
:100013007900E94400601B7A009004B9780175A067
:1000230000E493F2A308B8000205A0D9F4DAF2754C
:02003300A0FF2C
:1003B300AAF0FBE5828515F0A4FCADF0E583851575
:1003C300F0A42DFDE435F0FEE5828516F0A42DFDA5
:1003D300E5F03EFEE433FFEA8515F0A42EFEE5F0DA
:1003E3003FFFE5838516F0A42EFEE5F03FFFE5828F
:1003F3008517F0A42EFEE5F03FFFEB8515F0A42F43
:10040300FFEA8516F0A42FFFE5838517F0A42FFFDD
:0E041300E5828518F0A42F8EF08D838C822256
:10003B007800E84400600A790175A000E4F309D860
:10004B00FC7800E84400600C7900900001E4F0A318
:04005B00D8FCD9FAFA
:10042100FBC2D530E715D2D5E4C39582F582E495B8
:1004310083F583E495F0F5F0E49BFBE51830E717CD
:10044100B2D5E4C39515F515E49516F516E495179F
:10045100F517E49518F518EB12034E30D513FBE4AC
:10046100C39582F582E49583F583E495F0F5F0E494
:100471009B22AA82AB8312048B6003A380F8C3E59D
:0A048100829AF582E5839BF5832241
:0D0006007581201204A7E58260030200034B
:10048B0020F71430F6148883A88220F507E6A8839A
:10049B0075830022E280F7E49322E022758200222A
:00000001FF
