:040000000200333295
:01000B0032C2
:0100130032BA
:01001B0032B2
:0100230032AA
:03002B000201CE01
:03008C0002002E41
:03002E0002008F3E
:10008F001200C41202C2E4F51AF51B751CE8751DA7
:10009F0003D20090030512014C751A01751B0075F0
:1000AF001C20751D4EC20090032212014C1200E954
:1000BF001200F080FB7F008F82C0071201A3D007D0
:1000CF000FBF020040F175C80075CDFC75CBFC75F4
:1000DF00CC6775CA67D2ADD2CA22D2AF224387018D
:1000EF00227F00EFC40354F8FE2408F92407F8E632
:1000FF006042740629F8E6603B870509870619C038
:10010F0007C006C005C001C0008D828E831200316A
:10011F00D000D001D005D006D007E614F6E92404AC
:10012F00F9870509870619ED4E70098F82C00712EE
:10013F0001A3D0070FBF020040A90200ECAE82AFAF
:10014F00837D00EDC40354F82408F987030987045D
:10015F0019EB4C6008BD020050030D80E6BD020193
:10016F0022EDC40354F8FD2408F8A60608A607EDEF
:10017F002408FD2402F8A61A08A61B74042DF8A65D
:10018F001C08A61D74062DF8760074072DF9A20021
:10019F00E433F722E582C40354F8FF2408F876000D
:1001AF00087600EF2408FF2402F876000876007422
:1001BF00042FF8760008760074062FF8760022C018
:1001CF0021C0E0C0F0C082C083C007C006C005C018
:1001DF0004C003C002C001C000C0D075D000C2CFA0
:1001EF007F00EFC40354F8FE2408F987040987053C
:1001FF0019EC4D700302029CEE2408F92402F886D4
:10020F000508860618ED4E6003020291740729FC5B
:10021F00A804E6600E740629FCA804E6FB04A804F3
:10022F00F6803F870309870419C007C004C003C0C5
:10023F00018B828C83120031D001D003D004D00700
:10024F00740629FCA804E614A804F6E92404F98727
:10025F000309870419EB4C70098F82C0071201A3A1
:10026F00D007EFC40354F82408FC2404F9870209CB
:10027F00870319EA4B601674022CF8A60208A6032E
:10028F00800B1DBDFF011EA60508A606180FBF0295
:10029F000050030201F1D0D0D000D001D002D00322
:1002AF00D004D005D006D007D083D082D0F0D0E0D4
:1002BF00D02132D201C202E4F518F5192210010241
:1002CF008003C29722200104D201D297220518E49D
:1002DF00B518020519C3E5189414E51994005001D7
:1002EF0022E4F518F5191001028003C297222001AC
:1002FF0004D201D2972230020122D20210010280D1
:10030F0006C290C2978009200106D201D290D297DF
:10031F00C2022230020122D2027F007590F09001BA
:10032F00F4C00712034975900F9001F4120349D0DE
:10033F00070FBF050040E4C20222AE82AF8353898C
:10034F00F0438901C2A97C007D00C3EC9EED9F5054
:10035F0016758CFC758A67C28DD28C308DFDC28C60
:10036F000CBC00E60D80E322AE82AF8353890F43AE
:10037F008910C2AB7C007D00C3EC9EED9F501675BB
:10038F008DFC758B67C28FD28E308FFDC28E0CBCE9
:10039F0000E60D80E322AE82AF8375C800C2AD7C4C
:1003AF00007D00C3EC9EED9F501C75CDFC75CBFC02
:1003BF0075CC6775CA67C2CFD2CA30CFFDC2CA0C1F
:1003CF00BC00E00D80DD22AE82AF837C007D00C3D8
:1003DF00EC9EED9F501B7A7B7B00EA24FFF8EB34F9
:1003EF00FFF988028903E84970F00CBC00E10D8029
:0203FF00DE22FC
:06006200E478FFF6D8FD72
:100040007900E94400601B7A00900405780175A0EE
:1000500000E493F2A308B8000205A0D9F4DAF2751F
:02006000A0FFFF
:100068007800E84400600A790175A000E4F309D833
:10007800FC7800E84400600C7900900001E4F0A3EB
:04008800D8FCD9FACD
:0F003100E473758121120401E582600302002E41
:0404010075820022DE
:00000001FF
